:020000040000FA
:040000001EEF00F0FF
:080008003CEF00F0036A026EF8
:10001000FF0E0226032200D0D8A01200030E016EAC
:10002000E50E02D8F5D7016AFC0F006E0000E86A01
:1000300001D000060000015AFCE212000001939C6E
:10004000939E93809382310EC86EC56AF28EF28CB5
:100050009D86A00EC86EC76A3E0EC66EC56AFF0EAC
:10006000236E010E036EF40ED2DF010E036EF40E4A
:10007000CEDF817E939EF9D70001EACF25F0E9CF4C
:1000800026F004C027F0817C939C9EA664EF00F0CC
:10009000C9CF24F0000EC7B6010E046E2450C85C10
:1000A000D8A4010E0416D8B45DEF00F0232A00EEA8
:1000B00005F0235024C0EBFF9E96C7A863EF00F025
:1000C000C798FF0E236E9E9625C0EAFF26C0E9FF63
:0800D00027C004F01100FFD766
:020000040030CA
:08000000C0FCFFEEFFFD9BFFB9
:00000001FF
