:10000000000001308A0081298030A100FE300021EB
:10001000013000217530AA0030303129A101A1172B
:10002000B200FE30002132080029A501AD00AE016A
:10003000A01125080319A0150530A4002730AC0035
:1000400010302E200330AC00E8302E20AC0164309C
:100050002E20AC010A302E202D083528AB002E08AA
:10006000AA002D08A9004A212908A900A403031900
:10007000A011250803193F2824020318462829083F
:10008000031DA011A0194628303E00290800B00029
:10009000861106118316861106110F30860583120C
:1000A0003008A01871283E30AA008030312133304A
:1000B000AF0085201330AA008830312185206430BC
:1000C00030218520643030212230AF008520283057
:1000D00070200C30702006307020A0143008712879
:1000E0002014AF00201C7F280611033C031C842829
:1000F00084200730AA00D0303121031408002014D6
:10010000FE3C031994280615201C201086150F307C
:1001100086052F08F039860400008611AF0E000016
:10012000201885283230302130087C292016201EE6
:100130002012A01A9F28A016D5200318CA28201123
:100140000830AC00E620AB0DAC0BA2282019AF287C
:10015000201AAB28FB20F520F120201ACA20F82015
:1001600003102B08D1282016201E2012201BBD288A
:10017000FE39A60020170310D128A01BC528AF0008
:10018000A017D5200318CA282F08D9200318CA2879
:10019000201ED128FB20F5202013A013A01220112F
:1001A000F8203114031C31107C29EE202608A01AF7
:1001B0000138AB000830AC00AB0DF8200318E12883
:1001C000FB20F520F120AC0BDC28F820F520E828F6
:1001D0006400031005180314F1200800F820F5202E
:1001E000FB20851083168510FE2883168514FE28B3
:1001F00083160514FE2805108316051083120800C7
:10020000A11B4728A11C06292118B5280800A40015
:10021000A201240803178D000313250803178F007C
:100220001A2103197C290021A40A0319A50AA20F87
:1002300009297C29831603178C170C140000000071
:1002400083120C087C29AC01AB00FF30AB07031C08
:10025000AC07031C7C290330AA00E7303121252993
:10026000AA01FC3EA900AA09031C3C29FF3000009A
:10027000A90703183729A9070000AA0F3629080083
:10028000013EB0000A30AB00AC014A21B00B452959
:100290002D080800AE01AD011030AF002A0DAD0DE4
:1002A000AE0D2B08AD022C08031C2C0FAE02031858
:1002B00060292B08AD072C0803182C0FAE0703107C
:1002C000A90DAA0DAF0B4E2929087C291030B300C7
:1002D000AA01A901B00CAF0C031C74292B08A907B3
:1002E0002C0803182C0FAA07AA0CA90CAE0CAD0CF5
:1002F000B30B6A292D087C29831383120313000092
:100300000800A001073083169C0007309F0081136E
:10031000643083128A0123218A010420B9011E302E
:10032000BA000C30BB000130BC001E30BD000B30E9
:10033000BE000630BF00C0013908B8008A110A1299
:10034000B1223808B9003A08B8008A110A12B1225D
:100350003808BA003B08B8008A110A12B1223808DE
:10036000BB003C08B8008A110A12B1223808BC0050
:100370003D08B8008A110A12B1223808BD003E08B3
:10038000B8008A110A12B1223808BE003F08B8002E
:100390008A110A12B1223808BF008A01EE20D0303B
:1003A0008A01B52000308A01B52039088A01B520BC
:1003B0003A088A01B5203B088A01B5203C088A0129
:1003C000B5203D088A01B5203E088A01B5203F08C6
:1003D0008A01B52040088A01B3208A01CA2014305E
:1003E0008A0123218A01EE20D1308A01B520003014
:1003F0008A01B5208A019820B9008A019820BA00A4
:100400008A019820BB008A019820BC008A019820AC
:10041000BD008A019820BE008A019820BF008A0191
:100420009620C0008A01CA203908B8008A110A1231
:100430008E223808B9003A08B8008A110A128E22B2
:100440003808BA003B08B8008A110A128E22380810
:10045000BB003D08B8008A110A128E223808BD0080
:100460003E08B8008A110A128E223808BE003F08E2
:10047000B8008A110A128E223808BF0041083902DA
:10048000A700A801031CA803280827048A110A1240
:10049000031D4C2A8A01F2298030A10080308A0194
:1004A0000E200230A500C6308A0107210230A500C7
:1004B0003B088A0116203A308A0147200230A50005
:1004C0003A088A0116203A308A0147200230A500F6
:1004D00039088A0116208030A100C0308A010E2020
:1004E0000230A500CD308A0107210230A5003D0869
:1004F0008A0116202D308A0147200230A5003E08CF
:100500008A0116202D308A0147200230A5003F08BD
:100510008A0116203908C1008A01F2290F303805F6
:10052000B600AA013608A90000308A014021B600B1
:10053000380E0F39B700AA013708A90000308A0128
:100540004021B700B0013708AF00AC010A30AB0062
:100550008A016621B4002E08B50036083407B800B9
:100560000800AA013808A90000308A014021B6001D
:10057000AA013808A90001308A014021B700370ECE
:10058000F039B70037083606B80008005400690093
:100590006D0065003A002000000044006100740016
:0805A00065003A002000000094
:02400E00321F5F
:00000001FF
