:100000008D280830A600A70037088400350833196A
:100010004E20331D50203608840084173408800495
:10002000A001A101260803198828B3184720360823
:10003000840000083405FF3EA00DA10DB31C47202D
:10004000A60B152827083318792820088828083097
:10005000A60037088400350833194E20331D502080
:100060003608840084173409800526080319882877
:100070003318792036088400A10CA00C0008340441
:10008000031C340680004720A60B3A28882837082E
:10009000840035088006000080060800800453288C
:1000A000FF3A80055428FF3A841780058828A30169
:1000B000A200FF30A207031CA307031C88280330FB
:1000C000A100DF3065205928A101E83EA000A10968
:1000D000FC30031C6E28A00703186B28A0076400DF
:1000E000A10F6B2820187428A01C782800007828FD
:1000F0000800A201A3018028A10CA00CA20DA30D51
:10010000FF3E03187C282308A1002208A0008828AD
:10011000831303138312640008008316860183127D
:1001200086170130BC00640004303C028A110A12B8
:10013000031821298A110A12B421AA30BD008A119C
:100140000A120D228930BD008A110A120D221030C8
:10015000BD008A110A120D228A110A12C5210A3025
:100160008A0157208A110A12B421AA30BD008A11CF
:100170000A120D220730BD008A110A120D22E0304A
:10018000BD008A110A120D224230BD008A110A12E6
:100190000D22CB30BD008A110A120D22EB30BD00BA
:1001A0008A110A120D226F30BD008A110A120D2227
:1001B000C930BD008A110A120D228A110A12C52106
:1001C0000A308A0157208A110A12B421AA30BD00D0
:1001D0008A110A120D228930BD008A110A120D22DD
:1001E000BD018A110A120D228A110A12C5210A3094
:1001F0008A0157208A110A12B421AA30BD008A113F
:100200000A120D228730BD008A110A120D224030D9
:10021000BD008A110A120D228A110A12C5210A3064
:100220008A0157200330A300E8308A01582080302B
:100230008606831686138312BC0A8A110A12031DCE
:1002400093280130BC00640004303C028A110A1279
:100250000318B1298A110A122E22AA30BD008A1170
:100260000A1287228930BD008A110A1287221030B3
:10027000BD008A110A1287228A110A123F220A300F
:100280008A0157208A110A122E22AA30BD008A1133
:100290000A1287220730BD008A110A1287226030B5
:1002A000BD008A110A1287224230BD008A110A124B
:1002B0008722AA30BD008A110A1287226030BD0051
:1002C0008A110A128722D530BD008A110A128722AC
:1002D000F730BD008A110A1287228A110A123F22C2
:1002E0000A308A0157208A110A122E22AA30BD0034
:1002F0008A110A1287228930BD008A110A128722C8
:10030000BD018A110A1287228A110A123F220A307D
:100310008A0157208A110A122E22AA30BD008A11A2
:100320000A1287228730BD008A110A1287224030C4
:10033000BD008A110A1287228A110A123F220A304E
:100340008A0157200330A300E8308A01582080300A
:100350008606831686138312BC0A8A110A12031DAD
:1003600023298A110A12A82A871783168713831252
:1003700087168316871283128713831687138312B7
:100380008712831687128312080087138316871338
:100390008312871683168712831287178316871393
:1003A000013083128A01572008000730B6008030E0
:1003B000B4000730B7002030B500B3018A01012036
:1003C000B8000730B6008030B4000730B7002030E6
:1003D000B5000130B300A001A10101308A0128203D
:1003E0000730B6008030B4000730B7002030B500C9
:1003F000B3018A010120B9000730B6008030B40093
:100400000730B7002030B5000130B3000130A00044
:10041000A10101308A01282008000730B600803091
:10042000B4000730B7002030B5000130B3003D08FC
:10043000A000A1018A0127200730B6008030B40057
:100440000730B7002030B500B30101308A01022027
:10045000013903193E10031D3E14080007168316C8
:1004600007128312871583168711831207128316CA
:10047000071283128711831687118312080007124F
:1004800083160712831287158316871183120716A6
:1004900083160712013083128A01572008000730A3
:1004A000B6001030B4000730B7000830B500B30113
:1004B0008A010120B8000730B6001030B4000730C0
:1004C000B7000830B5000130B300A001A101013030
:1004D0008A0128200730B6001030B4000730B7007A
:1004E0000830B500B3018A010120B9000730B60019
:1004F0001030B4000730B7000830B5000130B30049
:100500000130A000A10101308A0128200800073035
:10051000B6001030B4000730B7000830B500013025
:10052000B3003D08A000A1018A0127200730B600D2
:100530001030B4000730B7000830B500B301013007
:100540008A010220013903193E10031D3E140800E0
:0605500063008A01A82AE5
:02400E007D3FF4
:00000001FF
