:10000000000000308A007728A0162017A0170A28C1
:100010002016201E2012201B1228FE39A2002017B5
:1000200003102628A01B1A28A700A0172A200318AF
:100030001F2827082E2003181F28201E262850209E
:100040004A202013A013A01220114D202814031CB5
:100050002810722843202208A01A0138A500083071
:10006000A600A50D4D200318362850204A20462012
:10007000A60B31284D204A203D2864000310871923
:100080000314462008004D204A20502007128316F2
:1000900007125328831607165328831687155328EB
:1000A00087118316871183120800A601A500FF306F
:1000B000A507031CA607031C72280330A400E73021
:1000C00063205728A401FC3EA300A409031C6E284A
:1000D000FF300000A30703186928A3070000A40F3E
:1000E0006828080083138312031300000800A0018E
:1000F000073083169C0007309F008113860183120E
:100100008601E130A900C230AA00B530AB00DD3075
:10011000AC004030AD00F830AE008A014320AA3078
:100120008A01042089308A01042010308A010420C9
:100130008A011F200A308A0155208A014320AA30F3
:100140008A010A2007308A010A2029088A010A2028
:100150002A088A010A202B088A010A202C088A0111
:100160000A202D088A010A202E088A0108208A0107
:100170001F200A308A0155208A014320AA308A01B3
:10018000042089308A01042000308A0104208A0179
:100190001F200A308A0155208A014320AA308A0193
:1001A000042087308A01042040308A0104208A011B
:1001B0001F200A308A0155200330A600E8308A014A
:1001C0005620803086068316861383128A018D2876
:0601D00063008A01E8282B
:02400E00321F5F
:00000001FF
