:020000040000FA
:0400000072EF00F0AB
:08000800008800A8009800BC6C
:1000100005D0FE0B056E008CD890120000BE05D0F6
:100020000A6E008E1CD805E20A5020D802E200A811
:1000300012000DD834D8009C009E009A01D81200FE
:10004000E268013CE16EE1880450E41207D0E26806
:1000500001C0E1FF041CE616E188E4161200F0DF9F
:100060001ED8F5DF17D8055000BA0109086E080E32
:10007000096E0836D8B0E4DFD8A0E9DF10D80AD876
:10008000092EF7D7DDDF0BD8E26801C0E1FF04508D
:10009000E714FF0FE26802C0E1FF031CDCD7E2684F
:1000A000023CE16EE1880350D0D7096A086EFF0E6A
:1000B0000826092200D0D8A01200030E076EE60E13
:1000C00002D8F5D7076AFC0F066E071ED8A006D027
:1000D000FF0E00000626D8B0FCD706260000073E1B
:1000E000F7D71200F86A006AAB6A946A070EB46E1A
:1000F0000F0EC16E010E096EF40ED8DFE10E0D6E0B
:10010000C20E0E6EB50E0F6EDD0E106E400E116E2D
:10011000F80E126E946A826A936A8168010E096E03
:10012000F40EC4DF936A816A946A8268E3D7820E10
:10013000016E800E046E820E026E400E036E550E2E
:1001400065DF890E63DF100E5FDF0A0EAEDF820E01
:10015000016E800E046E820E026E400E036E550E0E
:1001600055DF070E53DF0D5051DF0E504FDF0F509C
:100170004DDF10504BDF115049DF125045DF0A0EA2
:1001800094DF820E016E800E046E820E026E400EAF
:10019000036E550E3BDF890E39DF000E35DF0A0E88
:1001A00084DF820E016E800E046E820E026E400E9F
:1001B000036E550E2BDF870E29DF400E25DF640E00
:1001C00074DF136A132A92968086010E096EF40E6C
:1001D0006DDF92968096010E096EF40E67DFA7D749
:0201E000F1D755
:020000040030CA
:08000000FFFEFFEEFFFD9BFF78
:00000001FF
