:020000040000FA
:0400000092EF00F08B
:080008000E6E420E056E0F0E94
:10001000066E6BEC00F0D8B4CA90D8A4CA80FC0F6E
:10002000D8A0CA92D8B0CA82400E056E420E066EA3
:100030000F0E096E0A6ACAB027D8CAB225D86DEC6D
:1000400000F00504CB6E05C007F006C008F00050B4
:100050000B6E0C6E003C0C6A82EC00F00A500E2E07
:100060000AD0BE6E0C0EBD6E09BEBD8A09BCBD882D
:100070009494CA841200BB6E0C0EBA6E09BEBA8A82
:1000800009BCBA889492F5D700D8D89009320632C4
:1000900005321200086A076EFF0E0726082200D0FC
:1000A000D8A01200030E066EDE0E02D8F5D7066A3F
:1000B000E90F056EFC0E05E3000000000526FDE2D9
:1000C000000005260606F9E205B000D005A202D020
:1000D00000D0000012000A6A096A100EF36E06349E
:1000E00009360A360750095C08500A5805E30750DC
:1000F000095E08500A5AD88005360636F32EEFD727
:100100000550120007500B02F3CF09F0F4CF0AF0AC
:1001100008500B02F3500A2607500C02F3500A262F
:100120000950120000017B6A7A6A7E6A7F6A0F0EAC
:10013000C16E92809282928492869298929A9380D3
:100140009382938493969398939A939C939C949080
:100150009492949494869488948A948C949E939C7C
:100160008A9C939E8A9E9298899894908B80939A69
:100170008A9A939C8A8C939E8A8E276A0A0E006EB6
:10018000070E086ED00E076E010E3EDF256A246A48
:100190004C0E236E100E226EFDEC00F0256A360E1A
:1001A000246E070E236EAD0E226EFDEC00F0256A64
:1001B000400E246E280E236E100E226EFDEC00F011
:1001C000256A6F0E246ED40E236ED80E226EFDECBF
:1001D00000F0030E086EE80E5EDF010E286E060EBC
:1001E0002860FAEF00F0030E086EE80E54DF282AAC
:1001F000D8A0F5D782729492C9D7010E266E180E38
:1002000026602FEF01F093988A98010E2214046A59
:10021000036A026A016E0104021003100410D8A4DC
:1002200014EF01F093988A88D89025322432233233
:100230002232030EE82EFED70000000093968A8635
:10024000030EE82EFED70000000093968A96030E58
:10025000E82EFED700000000262AD8A0D0D7939A17
:100260008A8A030EE82EFED700000000939A8A9A2D
:0E027000030EE82EFED7000000001200FFD79C
:020000040030CA
:03000100011F0ECE
:020005008B80EE
:060008000FC00FE00F40E5
:00000001FF
