:020000040000FA
:0400000094EF00F089
:08000800CFEF00F00E6E420E76
:10001000056E0F0E066E6DEC00F0D8B4CA90D8A431
:10002000CA80FC0FD8A0CA92D8B0CA82400E056E12
:10003000420E066E0F0E096E0A6ACAB027D8CAB2FF
:1000400025D86FEC00F00504CB6E05C007F006C0A4
:1000500008F000500B6E0C6E003C0C6A84EC00F053
:100060000A500E2E0AD0BE6E0C0EBD6E09BEBD8AA1
:1000700009BCBD889494CA841200BB6E0C0EBA6E83
:1000800009BEBA8A09BCBA889492F5D700D8D8902C
:100090000932063205321200086A076EFF0E072683
:1000A000082200D0D8A01200030E066EDE0E02D881
:1000B000F5D7066AE90F056EFC0E05E300000000A7
:1000C0000526FDE2000005260606F9E205B000D08F
:1000D00005A202D000D0000012000A6A096A100EC0
:1000E000F36E063409360A360750095C08500A5880
:1000F00005E30750095E08500A5AD88005360636CF
:10010000F32EEFD70550120007500B02F3CF09F082
:10011000F4CF0AF008500B02F3500A2607500C02E5
:10012000F3500A260950120000017B6A7A6A7E6A3F
:100130007F6A0F0EC16E928092829284928692980C
:10014000929A93809382938493969398939A939C94
:10015000939E94909492949494869488948A948C88
:10016000949E939C8A9C939E8A9E92988998949040
:100170008B80939A8A9A939C8A8C939E8A8E286A03
:10018000330E296E29C0C8FFC56A360EC66EC78EEB
:10019000F28CF28E9E969D86356A0EEF01F000017C
:1001A000EACF37F0E9CF38F010C039F0949E8B8E4B
:1001B0009EA6EDEF00F09E96C7A0EDEF00F000EEDA
:1001C0002BF03550EB502A6E2AC0C9FFC688352A5D
:1001D0000A0E3562EDEF00F0356AEFEF00F0010E28
:1001E000C7B4000E106E000EC6BC010E1016D8B4B7
:1001F000FBEF00F0C69C000EC7B4010E106E000E9F
:10020000C6BE010E1016D8B407EF01F0C69E37C067
:10021000EAFF38C0E9FF39C010F011000A0E006E85
:10022000070E086ED00E076E010EF0DE220E2B6E4A
:100230005C0E2C6E4C0E2D6E266A256A246E100EF6
:10024000236E52EC01F0266A360E256E070E246EE0
:10025000AD0E236E52EC01F0266A400E256E280E7C
:10026000246E100E236E52EC01F0266A6F0E256E7E
:10027000D40E246ED80E236E52EC01F0030E086EDD
:10028000E80E0BDF010E366E060E36604FEF01F002
:10029000030E086EE80E01DF362AD8A0F5D7827269
:1002A0009492C4D7010E276E180E276084EF01F0D8
:1002B00093988A98010E2314046A036A026A016EF5
:1002C0000104021003100410D8A469EF01F0939800
:1002D0008A88D8902632253224322332030EE82E23
:1002E000FED70000000093968A86030EE82EFED704
:1002F0000000000093968A96030EE82EFED70000B9
:100300000000272AD8A0D0D7939A8A8A030EE82E15
:10031000FED700000000939A8A9A030EE82EFED7BB
:08032000000000001200FFD7ED
:020000040030CA
:03000100011F0ECE
:020005008B80EE
:060008000FC00FE00F40E5
:00000001FF
