:10000000000001308A00CB29FF0003088301FE00B5
:100010000408FC000A08FD0001308A00F52983135A
:10002000B500B601B60D003036027C30031935023A
:10003000031C2028B21B20282430B5070318B60A59
:1000400000303602F03003193502031C2C288317C8
:100050002030B5070318B60A013036027030031994
:100060003502031C35282030B50735088400080008
:100070008030A100FE30FE200130FE207530AA0045
:1000800030305129A101A117B400B408031DB403F5
:10009000FE30FE20A30803194F28230B512880307F
:1000A00062282308023A031D5728C030622823081B
:1000B000033A031D5D28943062282308043A031D87
:1000C0006328D430A30034082307FE28A101A11718
:1000D000B400FE30FE203408FE28A601AD00AE01BB
:1000E000A01126080319A0150530A5002730AC0083
:1000F000103086200330AC00E8308620AC0164303C
:100100008620AC010A3086202D088D28AB002E08F1
:10011000AA002D08A90060212908A900A503031938
:10012000A011260803199728250203189E282908DC
:10013000031DA011A0199E28303EFE280800AD0026
:10014000250803199D292E1883172D0884000008FF
:10015000831303199D29FE20AD0AA503A028B20030
:10016000851287118316851287110F308705831238
:100170003208A018D9283E30AA00803051213330EF
:10018000B100ED201330AA0088305121ED206430F9
:100190005021ED20643050212230B100ED20283074
:1001A000D8200C30D8200630D820A0143208D92806
:1001B0002014B100201CE7288711033C031CEC2805
:1001C000EC200730AA00D03051210314080020147D
:1001D000FE3C0319FC288715201C201085160F30C3
:1001E00087053108F039870400008512B10E000040
:1001F0002018ED283230502132089D29A11BAF284C
:10020000A11C08008000840A0800080003178D0064
:10021000031783168C130C1483120C088D0A9D2966
:1002200003178C0083168C130C1555308D00AA30E3
:100230008D008C148C181A290C1183128D0A9D299B
:10024000A500A201250803178D0003132608031734
:100250008F00332103199D29FE20A50A0319A60A40
:10026000A20F22299D29831603178C170C14000056
:10027000000083120C089D2983178001840AFF3E29
:10028000031D3D299D29AC01AB00FF30AB07031CCA
:10029000AC07031C9D290330AA00E73051214529F2
:1002A000AA01FC3EA900AA09031C5C29FF3000003A
:1002B000A90703185729A9070000AA0F5629080003
:1002C000AE01AD011030B1002A0DAD0DAE0D2B0801
:1002D000AD022C08031C2C0FAE02031876292B0844
:1002E000AD072C0803182C0FAE070310A90DAA0D9B
:1002F000B10B642929089D291030B600AA01A90173
:10030000B20CB10C031C8A292B08A9072C0803186E
:100310002C0FAA07AA0CA90CAE0CAD0CB60B8029A9
:100320002D089D29B300B30AB30303199D290310B7
:10033000B00CAF0CAE0CAD0C9429831383120313D5
:1003400000000800B1002408B200310824070F2083
:1003500000089D29B1000310A60D2508B20026074C
:100360000F20310880002508A60A26070F2029083B
:1003700080009D29B1000310B10D2408B20031089E
:1003800024070F200008A900310A24070F200008C5
:10039000AA0029089D29A001073083169C00073078
:1003A0009F0083128A110A161129203084005C30C4
:1003B0008A013D21A030840050308A013D21103057
:1003C000840060308A013C219030840060308A01D2
:1003D0003C2102308316B100BC30B0008312ED0125
:1003E0003030EC008A110A1635298A110A128B1D49
:1003F000FA298B118A110A120B1CC22D0B108A11BB
:100400000A12861A042A58160301861A0130BB0004
:100410000301581A01303B058A110A120319442AB4
:10042000BC088A110A12031D1C2A8310581C83144D
:1004300083185814831C581001303C028A110A1288
:10044000031D292A8310581D831483185815831CF3
:10045000581102303C028A110A12031D312A8316F8
:10046000C50A83120430831645028A110A128312C8
:10047000031D3C2A8316C5018312D8148316321536
:100480008312D8155812D901C0300605D600D508F8
:100490008A110A12031D942D0B3057028A110A1279
:1004A000031C542A0A30D700BC088A110A12031D03
:1004B0003C2C8A110A125818212B6B08B8006A08C4
:1004C000B7000301D61B0130BA01B900B2015708C9
:1004D000B1003A08AC003908AB008A017C21B900B0
:1004E0002E08BA00B20183164A088312B1003A08F6
:1004F000AC003908AB008A017C21B9002E08BA0093
:1005000037083907A70038080318013E3A07A80042
:1005100003302802FF30031927028A110A12031838
:10052000BC2A6B08B8006A08B7000301D61B01306B
:10053000BA01B900B2015708B1003A08AC00390855
:10054000AB008A017C21B9002E08BA00B2018316E3
:100550004A088312B1003A08AC003908AB008A019E
:100560007C21B9002E08BA0037083907EA0038089C
:100570000318013E3A07EB006B08B8006A08B700A1
:100580000301561B0130BA01B900B2015708B1008E
:100590003A08AC003908AB008A017C21B9002E086A
:1005A000BA00B20183164A088312B1003A08AC00BF
:1005B0003908AB008A017C21B9002E08BA0039083D
:1005C0003702A7003A08031C013E3802A800A80819
:1005D0008A110A12031DF22A043027028A110A1214
:1005E000031C1D2B6B08B8006A08B7000301561BDB
:1005F0000130BA01B900B2015708B1003A08AC00A5
:100600003908AB008A017C21B9002E08BA00B2017A
:1006100083164A088312B1003A08AC003908AB00CF
:100620008A017C21B9002E08BA0039083702EA0095
:100630003A08031C013E3802EB00D8168A110A1250
:10064000392C83162F088312B80083162E088312C4
:10065000B7000301D61B0130BA01B900B201570837
:10066000B1003A08AC003908AB008A017C21B9001E
:100670002E08BA00B20183164B088312B1003A0863
:10068000AC003908AB008A017C21B9002E08BA0001
:1006900037083907A70038080318013E3A07A800B1
:1006A00003302802FF30031927028A110A120318A7
:1006B0008B2B83162F088312B80083162E08831203
:1006C000B7000301D61B0130BA01B900B2015708C7
:1006D000B1003A08AC003908AB008A017C21B900AE
:1006E0002E08BA00B20183164B088312B1003A08F3
:1006F000AC003908AB008A017C21B9002E08BA0091
:10070000370839078316AE00831238080318013EF4
:100710003A078316AF00831283162F088312B8009E
:1007200083162E088312B7000301561B0130BA014D
:10073000B900B2015708B1003A08AC003908AB0063
:100740008A017C21B9002E08BA00B20183164B0839
:100750008312B1003A08AC003908AB008A017C2151
:10076000B9002E08BA0039083702A7003A08031C5E
:10077000013E3802A800A8088A110A12031DC62BE0
:10078000043027028A110A12031CF82B83162F0843
:100790008312B80083162E088312B7000301561B7C
:1007A0000130BA01B900B2015708B1003A08AC00F3
:1007B0003908AB008A017C21B9002E08BA00B201C9
:1007C00083164B088312B1003A08AC003908AB001D
:1007D0008A017C21B9002E08BA0039083702831635
:1007E000AE0083123A08031C013E38028316AF00A4
:1007F000831283162F088312B80083162E088312E3
:10080000B7000301561B0130BA01B900B201570805
:10081000B1003A08AC003908AB008A017C21B9006C
:100820002E08BA00B20183164B088312B1003A08B1
:10083000AC003908AB008A017C21B9002E08BA004F
:1008400039083702A7003A08031C013E3802A80005
:10085000A8088A110A12031D372C043027028A11B6
:100860000A120318372C8316AF010130AE00831231
:10087000D8178A110A12922D01303C028A110A12ED
:10088000031D022D8A110A12581D9C2C0C30D61FF4
:100890000301B7000030D61F0301B8006C0837070A
:1008A000A7006D080318013E3807A800A8088A11A0
:1008B0000A12031D6F2CF03027028A110A12031846
:1008C0006F2C0C30D61F0301B7000030D61F030178
:1008D000B8003708EC0738080318013EED070C3064
:1008E000561F0301B7000030561F0301B800370838
:1008F0006C02A7003808031C013E6D02A800A8087E
:100900008A110A12031D8A2C0D3027028A110A123D
:10091000031C982C0C30561F0301B7000030561FE3
:100920000301B8003708EC023808031C013EED0251
:1009300058178A110A12FE2C3230D61F0301B70055
:100940000030D61F0301B800831630088312370722
:10095000A700831631080318013E83123807A80048
:10096000273028021030031927028A110A120318AF
:10097000CA2C3230D61F0301B7000030D61F030146
:10098000B80037088316B007831238080318013EF1
:100990008316B10783123230561F0301B7000030AF
:1009A000561F0301B8003708831630028312A700D0
:1009B0003808031C013E831631028312A800A808E0
:1009C0008A110A12031DEA2C333027028A110A12F7
:1009D000031CFB2C3230561F0301B7000030561F9A
:1009E0000301B80037088316B00283123808031CCD
:1009F000013E8316B10283128316321483128A11C8
:100A00000A12922D8316C5088A110A128312031D39
:100A1000262D831646088312D61B013E8316C60078
:100A200046088312561BFF3E8316C600033046025B
:100A30008A110A128312031C1F2D8316C60183120A
:100A40008316321583128A110A12922D01308316F1
:100A500045028A110A128312031D4B2D8316470883
:100A60008312D61B013E8316C70047088312561B0C
:100A7000FF3E8316C700033047028A110A12831211
:100A8000031C442D8316C70183128316321583126B
:100A90008A110A12922D0230831645028A110A1217
:100AA0008312031D702D831648088312D61B013E46
:100AB0008316C80048088312561BFF3E8316C800E1
:100AC000333048028A110A128312031C692D8316DF
:100AD000C80183128316321583128A110A12922DCD
:100AE0000330831645028A110A128312031D912DC9
:100AF000831649088312D61B013E8316C900490894
:100B00008312561BFF3E8316C9001F3049028A110B
:100B10000A128312031C8E2D8316C90183128316B9
:100B2000321583120A30D7005608D50013306B02F5
:100B30008A110A12031CA92D8A110A12031DA62D5F
:100B400089306A028A110A12031CA92DEB010A30AE
:100B5000EA00133083162F028A110A128312031C33
:100B6000C12D8A110A12031DBD2D893083162E0254
:100B70008A110A128312031CC12D8316AF010A3099
:100B8000AE0083128A110A120B1D022E0B1183165E
:100B9000C00A0A3040028A110A128312031DD22DA4
:100BA0008316C001831201301F190301BB000130FD
:100BB0008316C008031D003083123B058A110A12F8
:100BC0000319E32D1F150301581A0130BB006430CF
:100BD00059020130031803013B058A110A12031957
:100BE000F22DD90A643059028A110A12031C022E0E
:100BF000BC0A03303C028A110A12031D002EBC01FC
:100C00005812D9018A110A120C1C222E0C10FF3026
:100C10008F008E01023057028A110A12031C112E16
:100C2000D703BF0A3F0A8A110A12031D222EC00AE7
:100C3000143040028A110A12031D222ED814D8162D
:100C4000D817C0018A110A120C1F112F8A110A121B
:100C50009F19942E83161E088312EE001E08EF00C3
:100C60009F156F086B028A110A12031C412E8A110C
:100C70000A12031D452E6E086A028A110A12031811
:100C8000452E6B08EF006A08EE00031083163F0D37
:100C90005A3E840000088312A700840A0008A800B6
:100CA0002708F4022808031C280FF5020301031C7F
:100CB0000130F6020301031C0130F7020310831612
:100CC0003F0D5A3E840083126E088000840A6F082C
:100CD0008000031083163F0D5A3E840000088312E3
:100CE000A700840A0008A8002708F40728080318AA
:100CF000280FF507003003180130F60700300318FD
:100D00000130F7077708B0007608AF007508AE002D
:100D10007408AD0002308A0192212E08F9002D08D6
:100D2000F8008A110A12102F8A110A129F1D102F23
:100D300083161E08B30083121E088316B4008312A4
:100D40009F117A30A40083163F0883128A01BA21CA
:100D5000A7002A08A80027088316B90283122808CA
:100D60008A110A120318B92E280A8A110A120319C5
:100D7000BB2E8316BA020301031C0130BB02030120
:100D8000031C0130BC023F088312A6007A30A50084
:100D9000831634088312A9008316330883128A014C
:100DA000AA217A30A40083163F0883128A01BA214F
:100DB000A7002A08A80027088316B9078312280865
:100DC0000318280F8316BA07003003180130BB0739
:100DD000003003180130BC073C088312B0008316B2
:100DE0003B088312AF0083163A088312AE008316C5
:100DF00039088312AD0002308A0192212E08831631
:100E0000BE0083122D088316BD00BF0A04303F02C6
:100E10008A110A128312031D0F2F8316BF0183123A
:100E20000C137D088A007C0884007E088300FF0E76
:100E30007F0E0900D814D816D8178A01382014302C
:100E40008A014321BC018030A10080308A016620E4
:100E50001330A60088308A0120218030A100C030E4
:100E60008A0166201330A60099308A012021BC082F
:100E70008A150A12031D8A2AC0088A110A12031D44
:100E80009D2F8030A10080308A01662041308A0188
:100E9000AF203A308A01AF208030A10085308A012E
:100EA00066202E308A01AF208030A10087308A0171
:100EB000662056308A01AF208030A1008B308A0135
:100EC00066202E308A01AF208030A1008E308A014A
:100ED000662041308A01AF208030A100C0308A01F5
:100EE00066204F308A01AF203A308A01AF2080302F
:100EF000A100C5308A0166202E308A01AF208030E3
:100F0000A100C7308A01662056308A01AF20203008
:100F10008A01AF208030A100CB308A0166202E30BC
:100F20008A01AF208030A100CE308A016620413096
:100F30008A01AF2020308A01AF208A110A12581886
:100F4000BA2F8030A10082308A016620C9308A0120
:100F5000AF208030A10088308A016620C8308A0125
:100F6000AF208030A1008F308A01662020308A01B6
:100F7000AF20D8108A110A12581CD72F8030A10038
:100F800082308A01662020308A01AF208030A100A3
:100F900088308A016620C9308A01AF208030A100E4
:100FA0008F308A016620C8308A01AF20D8108A1598
:100FB0000A12D81E5928B201831648088312B100BC
:100FC0006B08AC006A08AB008A017C218316C10063
:100FD00083122E088316C20002308312A10046300D
:100FE0008400A601831642088312AE0083164108CE
:100FF0008312AD008A01702080012E30C40027309A
:10100000831642028A150A128312031C22288A15AB
:101010000A12031D13281030831641028A150A1282
:101020008312031C22284608A7002708C20047088D
:10103000A7002708C3004808A7002708C5008A158D
:101040000A124B280330831642028A150A128312B1
:10105000031C43288A150A12031D3628E83083161C
:1010600041028A150A128312031C43282030C20051
:101070004608A7002708C3004708A7002708C5009F
:101080008A150A124B282030C2003030C3004608AF
:10109000A7002708C5008030A10083308A016620A0
:1010A0000430A500AE0142308A019F2056308A01EB
:1010B000AF208A150A12D81F0729B20183164908E2
:1010C0008312B10083162F088312AC0083162E08FA
:1010D0008312AB008A017C218316C30083122E0881
:1010E0008316C40002308312A10050308400A60190
:1010F000831644088312AE00831643088312AD00A2
:101100008A01702080012E30CD00273083164402E2
:101110008A150A128312031CAC288A150A12031DB1
:1011200099281030831643028A150A128312031C71
:10113000AC285008A7002708CB005108A7002708B3
:10114000CC005208A7002708CE005308A7002708A4
:10115000CF008A150A12F9280330831644028A1533
:101160000A128312031CD1288A150A12031DC028F3
:10117000E830831643028A150A128312031CD12811
:101180002030CB005008A7002708CC005108A7004A
:101190002708CE005208A7002708CF008A150A1298
:1011A000F9288316C4088A150A128312031DE02841
:1011B0006430831643028A150A128312031CEF2837
:1011C0002030CB003030CC005008A7002708CE00DC
:1011D0005108A7002708CF008A150A12F9282030E5
:1011E000CB003030CC003030CE005008A7002708AC
:1011F000CF008030A10089308A0166200530A5002B
:10120000AE014B308A019F2041308A01AF20C008D7
:101210008A150A12031D322902308A014321030173
:10122000D81A0130BB000301D81B01303B048A15DA
:101230000A1203192F29013003178D0003136A08BE
:101240008A0110216B088A01102183162E0883124F
:101250008A01102183162F0883128A01102102307F
:101260008A014321790873028A150A12031D3E2957
:10127000780872028A150A120319C1290230780708
:10128000B70079080318013EB800B2018316480878
:101290008312B1003808AC003708AB008A017C210A
:1012A0008316C10083122E088316C20002308312F7
:1012B000A10046308400A601831642088312AE00C6
:1012C000831641088312AD008A0170208001273007
:1012D000831642028A150A128312031C8A298A1570
:1012E0000A12031D7B291030831641028A150A1247
:1012F0008312031C8A294608A7002708C200470852
:10130000A7002708C3004808A7002708C5008A15BA
:101310000A12B3290330831642028A150A12831275
:10132000031CAB298A150A12031D9E29E830831677
:1013300041028A150A128312031CAB292030C20015
:101340004608A7002708C3004708A7002708C500CC
:101350008A150A12B3292030C2003030C300460873
:10136000A7002708C5008030A100C3308A0166208D
:101370000430A500AE0142308A019F2056308A0118
:10138000AF2083163E0838028A150A128312031D05
:10139000D12983163D0837028A150A1283120319D0
:1013A0007B2AB201831649088312B10083163E08D6
:1013B0008312AC0083163D088312AB008A017C21A6
:1013C0008316C30083122E088316C40002308312D2
:1013D000A10050308400A601831644088312AE0099
:1013E000831643088312AD008A01702080012E30DD
:1013F000CD002730831644028A150A128312031C7B
:10140000202A8A150A12031D0D2A10308316430262
:101410008A150A128312031C202A5008A7002708E5
:10142000CB005108A7002708CC005208A7002708C6
:10143000CE005308A7002708CF008A150A126D2A8C
:101440000330831644028A150A128312031C452AAC
:101450008A150A12031D342AE830831643028A15BE
:101460000A128312031C452A2030CB005008A70023
:101470002708CC005108A7002708CE005208A70073
:101480002708CF008A150A126D2A8316C4088A1508
:101490000A128312031D542A6430831643028A15EC
:1014A0000A128312031C632A2030CB003030CC0098
:1014B0005008A7002708CE005108A7002708CF0032
:1014C0008A150A126D2A2030CB003030CC00303023
:1014D000CE005008A7002708CF008030A100C930F7
:1014E0008A0166200530A500AE014B308A019F209D
:1014F00041308A01AF207908F3007808F2008316A2
:101500003E08B8003D08B7008312D812D8138A11DC
:101510000A16DC2801303C028A150A12031DB12E7E
:101520008A0138200130BD0011303D028A150A12AF
:101530000318B62A8030A1000130A3003D088A01BB
:101540004420FF308A01AF208030A1000230A30088
:101550003D088A014420FF308A01AF2014308A01FF
:101560004321BD0A8A150A12031D942A0130BD00C9
:1015700011303D028A150A120318DA2A8030A100C0
:101580000130A3003D088A01442020308A01AF20A9
:101590008030A1000230A3003D088A0144202030A1
:1015A0008A01AF2014308A014321BD0A8A150A122C
:1015B000031DB82A8030A10080308A0166201330D4
:1015C000A600AA308A0120218030A100C0308A0103
:1015D00066201330A600BB308A0120210330AC0006
:1015E000E8308A014421FE308A01AF2040308A0170
:1015F000AF2007308A01AF2004308A01AF201C30B1
:101600008A01AF2010308A01AF2010308A01AF204C
:101610001C308A01AF2004308A01AF2007308A01D4
:10162000AF20FE308A01AF2048308A01AF201F3042
:101630008A01AF2000308A01AF2000308A01AF203C
:1016400000308A01AF2000308A01AF2000308A01CB
:10165000AF2000308A01AF201F308A01AF20FE305A
:101660008A01AF2050308A01AF201F308A01AF209D
:1016700001308A01AF2001308A01AF2001308A0198
:10168000AF2001308A01AF2001308A01AF20013044
:101690008A01AF201F308A01AF20FE308A01AF20BF
:1016A00058308A01AF201F308A01AF2007308A01ED
:1016B000AF2007308A01AF2007308A01AF20073002
:1016C0008A01AF2007308A01AF2007308A01AF209E
:1016D0001F308A01AF208030A10081308A0166204E
:1016E0001330A600CC308A0120218030A100C03008
:1016F0008A016620C9308A01AF20A601831631080D
:101700008312AE00831630088312AD008A01702068
:101710006D308A01AF2041308A01AF2020308A012C
:10172000AF208030A10087308A01662000308A0116
:10173000AF2001308A01AF2001308A01AF20013093
:101740008A01AF2002308A01AF2020308A01AF2009
:1017500025308A01AF2030308A01AF208A01AF20C6
:101760008030A100C7308A0166201330A600D43033
:101770008A01202101303C028A150A120319C32B69
:101780008A150A12AE2E8A110A167D238030A10016
:1017900081308A0166201330A600DE308A012021C4
:1017A0008030A100C0308A016620C9308A01AF2094
:1017B000A601831631088312AE0083163008831207
:1017C000AD008A0170206D308A01AF2041308A015E
:1017D000AF2020308A01AF208030A10087308A01FD
:1017E000662000308A01AF2001308A01AF2001302D
:1017F0008A01AF2001308A01AF2003308A01AF2077
:1018000020308A01AF2025308A01AF2031308A0193
:10181000AF2030308A01AF208030A100C7308A016C
:1018200066201330A600E6308A01202101303C02F8
:101830008A150A1203191F2C8A150A12AE2E8A1154
:101840000A167D238030A10081308A016620133082
:10185000A600F0308A0120218030A100C0308A012A
:101860006620C9308A01AF20A60183163108831291
:10187000AE00831630088312AD008A0170206D30EF
:101880008A01AF2041308A01AF2020308A01AF2089
:101890008030A10087308A01662000308A01AF20A5
:1018A00001308A01AF2001308A01AF2001308A0166
:1018B000AF20FF308A01AF2020308A01AF202530D1
:1018C0008A01AF2032308A01AF2030308A01AF2048
:1018D0008030A100C7308A0166201330A600F8309E
:1018E0008A01202101303C028A150A1203197B2C3F
:1018F0008A150A12AE2E8A110A167D238030A100A5
:1019000081308A0166201430A60002308A0120212D
:101910008030A100C0308A016620C9308A01AF2022
:10192000A601831631088312AE0083163008831295
:10193000AD008A0170206D308A01AF2041308A01EC
:10194000AF2020308A01AF208030A10087308A018B
:10195000662000308A01AF2001308A01AF200130BB
:101960008A01AF2003308A01AF20FF308A01AF2007
:1019700020308A01AF2025308A01AF2034308A011F
:10198000AF2030308A01AF208030A100C7308A01FB
:1019900066201430A6000A308A01202101303C0262
:1019A0008A150A120319D72C8A150A12AE2E8A112B
:1019B0000A167D238030A10081308A016620143010
:1019C000A60014308A0120218030A100C0308A0195
:1019D0006620C9308A01AF20A60183163108831220
:1019E000AE00831630088312AD008A0170206D307E
:1019F0008A01AF2041308A01AF2020308A01AF2018
:101A00008030A10087308A01662000308A01AF2033
:101A100001308A01AF2001308A01AF20FF308A01F6
:101A2000AF20FF308A01AF2020308A01AF2025305F
:101A30008A01AF2035308A01AF2030308A01AF20D3
:101A40008030A100C7308A0166201430A6001C3007
:101A50008A01202101303C028A150A120319332D14
:101A60008A150A12AE2E8A110A167D238030A10033
:101A700081308A0166201430A60026308A01202198
:101A80008030A100C0308A016620C9308A01AF20B1
:101A9000A601831631088312AE0083163008831224
:101AA000AD008A0170206D308A01AF2041308A017B
:101AB000AF2020308A01AF208030A10087308A011A
:101AC000662000308A01AF2001308A01AF20033048
:101AD0008A01AF20FF308A01AF20FF308A01AF209A
:101AE00020308A01AF2025308A01AF2036308A01AC
:101AF000AF2030308A01AF208030A100C7308A018A
:101B000066201430A6002E308A01202101303C02CC
:101B10008A150A1203198F2D8A150A12AE2E8A1100
:101B20000A167D238030A10081308A01662014309E
:101B3000A60038308A0120218030A100C0308A01FF
:101B40006620C9308A01AF20A601831631088312AE
:101B5000AE00831630088312AD008A0170206D300C
:101B60008A01AF2041308A01AF2020308A01AF20A6
:101B70008030A10087308A01662000308A01AF20C2
:101B800001308A01AF20FF308A01AF20FF308A0187
:101B9000AF20FF308A01AF2020308A01AF202530EE
:101BA0008A01AF2037308A01AF2030308A01AF2060
:101BB0008030A100C7308A0166201430A600403072
:101BC0008A01202101303C028A150A120319EB2DEB
:101BD0008A150A12AE2E8A110A167D238030A100C2
:101BE00081308A0166201430A6004A308A01202103
:101BF0008030A100C0308A016620C9308A01AF2040
:101C0000A601831631088312AE00831630088312B2
:101C1000AD008A0170206D308A01AF2041308A0109
:101C2000AF2020308A01AF208030A10087308A01A8
:101C3000662000308A01AF2003308A01AF20FF30D8
:101C40008A01AF20FF308A01AF20FF308A01AF2028
:101C500020308A01AF2025308A01AF2038308A0138
:101C6000AF2030308A01AF208030A100C7308A0118
:101C700066201430A60052308A01202101303C0237
:101C80008A150A120319472E8A150A12AE2E8A11D6
:101C90000A167D238030A10081308A01662014302D
:101CA000A6005C308A0120218030A100C0308A016A
:101CB0006620C9308A01AF20A6018316310883123D
:101CC000AE00831630088312AD008A0170206D309B
:101CD0008A01AF2041308A01AF2020308A01AF2035
:101CE0008030A10087308A01662000308A01AF2051
:101CF000FF308A01AF20FF308A01AF20FF308A0118
:101D0000AF20FF308A01AF2020308A01AF2025307C
:101D10008A01AF2039308A01AF208A01AF2080309C
:101D2000A100C7308A0166201430A60064308A0101
:101D3000202101303C028A150A120319A22E8A15AD
:101D40000A12AE2E8A110A167D2301303C028A1532
:101D50000A12031DAE2E8A150A12F32A8A110A16D8
:101D6000DC288A0138200130BD0011303D028A157F
:101D70000A120318D72E8030A1000130A3003D08BD
:101D80008A014420FF308A01AF208030A100023058
:101D9000A3003D088A014420FF308A01AF2014309F
:101DA0008A014321BD0A8A150A12031DB52E01308E
:101DB000BD0011303D028A150A120318FB2E803037
:101DC000A1000130A3003D088A01442020308A018F
:101DD000AF208030A1000230A3003D088A014420DA
:101DE00020308A01AF2014308A014321BD0A8A15B0
:101DF0000A12031DD92E8030A10080308A0166208E
:101E00001430A6006E308A0120218030A100C0303D
:101E10008A0166201430A6007F308A012021033019
:101E2000AC00E8308A0144218030A10080308A0172
:101E300066201430A60090308A0120218A110A16EB
:101E400083168310321D8314831283186B28831624
:101E5000C5088A150A128312031D462F8030A1007F
:101E6000C0308A016620C9308A01AF202E308A0135
:101E7000AF208030A10085308A0166201430A60092
:101E8000A0308A0120218A150A12512F8030A1002A
:101E9000C0308A01662020308A01AF202E308A01AE
:101EA000AF208316C6088A150A128312031D602FFD
:101EB0008030A100C2308A01662031308A01AF2013
:101EC0000130831646028A150A128312031D702FF1
:101ED0008030A100C2308A01662032308A01AF20F2
:101EE0000230831646028A150A128312031D802FC0
:101EF0008030A100C2308A01662035308A01AF20CF
:101F00000130831645028A150A128312031D9D2F84
:101F10008030A100C3308A016620C9308A01AF2019
:101F20008030A10085308A0166201430A600AB30D5
:101F30008A0120218A150A12A52F8030A100C33002
:101F40008A01662020308A01AF208316C7088A15CF
:101F50000A128312031DBA2F8030A100C4308A01F7
:101F6000662059308A01AF2061308A01AF20763077
:101F70008A01AF200130831647028A150A128312A4
:101F8000031DD02F8030A100C4308A0166204F305D
:101F90008A01AF2072308A01AF2074308A01AF20ED
:101FA0000230831647028A150A128312031DE62F98
:101FB0008030A100C4308A01662048308A01AF20F9
:101FC00069308A01AF207A308A01AF20023083164F
:101FD00045028A110A168312031D03288030A100CE
:101FE000C7308A016620C9308A01AF208030A10045
:101FF00085308A0166201430A600B6308A0120217F
:102000008A110A160B288030A100C7308A01662089
:1020100020308A01AF208030A100C8308A016620BC
:102020008316480883128A016D2056308A01AF203A
:1020300020308A01AF200330831645028A110A1628
:102040008312031D38288030A100CB308A0166201E
:10205000C9308A01AF208030A10085308A01662016
:102060001430A600C1308A0120218A110A164028A6
:102070008030A100CB308A01662020308A01AF2059
:102080008030A100CC308A01662083164908831273
:102090008A016D2041308A01AF2020308A01AF20B3
:1020A000053003178D0083160313460883128A0137
:1020B00010218316470883128A01102183164808CD
:1020C00083128A0110218316490883128A01102184
:1020D0008A110A16B121C8308A01432102303C021C
:1020E0008A110A16031D77288A150A121E2F8A01E3
:1020F00038200130BD0011303D028A110A16031844
:102100009D288030A1000130A3003D088A014420B1
:10211000FF308A01AF208030A1000230A3003D08CB
:102120008A014420FF308A01AF2014308A01432104
:10213000BD0A8A110A16031D7B280130BD0011302B
:102140003D028A110A160318C1288030A10001300F
:10215000A3003D088A01442020308A01AF2080304E
:10216000A1000230A3003D088A01442020308A01EA
:10217000AF2014308A014321BD0A8A110A16031DBB
:102180009F288030A10080308A0166201430A6008C
:10219000CC308A0120218030A100C0308A01662025
:1021A0001430A600DD308A0120210330AC00E83075
:1021B0008A0144218A011A2F83162F0C8312B3003F
:1021C00083162E0C83129500B30C950C8316831086
:1021D0002E188314831283181716831C1712831664
:1021E0008310AE188314831283189716831C9712DA
:1021F0006B0CB3006A0C9B00B30C9B0C83106A1829
:10220000831483181D16831C1D128310EA1883146F
:1022100083189D16831C9D1232308A0143218A0146
:10222000372FCB3083168500E030860087010730DA
:102230008100E8308B00813083129F008430831648
:102240009F000C30831297000C309D0095019B017C
:10225000313090000F3092008316FF3092004130F1
:102260008C00831286118A01D5298A110A1615223B
:1022700000308A010621BE0068303E028A110A162B
:1022800003198229EB016430EA008316AF01643040
:10229000AE00C601C7011930C8000F30C900831253
:1022A00003178D01683003138A0110216A088A011F
:1022B00010216B088A01102183162E0883128A01CF
:1022C000102183162F0883128A01102183164608D5
:1022D00083128A0110218316470883128A01102174
:1022E0008316480883128A01102183164908831235
:1022F0008A0110210130AC00F4308A0144218A1196
:102300000A16AB2901308A010621EA008A01082158
:10231000EB0003308A0106218316AE0083128A0186
:1023200008218316AF00053083128A010621831627
:10233000C600063083128A0106218316C7000730C3
:1023400083128A0106218316C800083083128A018D
:1023500006218316C90083128A110A16B1218A0147
:102360001A2F83163215C6088A110A168312031D06
:10237000C529AA016430A900AC018316480883125C
:10238000AB008A0160218316CA00831201308316D4
:1023900046028A110A168312031DDA29AA01C830DF
:1023A000A900AC01831648088312AB008A016021A2
:1023B0008316CA0083120230831646028A110A1657
:1023C0008312031DF0290130AA00F430A900AC01EA
:1023D000831648088312AB008A0160218316CA0065
:1023E00083128316C7088A110A168312031DFB295C
:1023F00001308316CB0083120130831647028A1105
:102400000A168312031D072A04308316CB00831299
:102410000230831647028A110A168312031D132AFB
:102420000A308316CB00831208008316071083122C
:10243000071014308A0143218A01382014308A01A0
:102440004321FE308A01AF2040308A01AF200030A6
:102450008A01AF200F308A01AF200F308A01AF20F0
:102460000F308A01AF2000308A01AF2001308A018D
:10247000AF2003308A01AF2007308A01AF20FE3041
:102480008A01AF2048308A01AF2000308A01AF2096
:102490001C308A01AF201C308A01AF201C308A0119
:1024A000AF201C308A01AF2018308A01AF201730CE
:1024B0008A01AF2007308A01AF20FE308A01AF20A9
:1024C00050308A01AF2000308A01AF2000308A01ED
:1024D000AF2000308A01AF2000308A01AF200030E9
:1024E0008A01AF2000308A01AF2000308A01AF207E
:1024F00003308A01AF20FE308A01AF2058308A01B4
:10250000AF2000308A01AF2000308A01AF200330B5
:102510008A01AF2003308A01AF2007308A01AF2043
:1025200006308A01AF2006308A01AF2006308A01CA
:10253000AF20FE308A01AF2060308A01AF20073023
:102540008A01AF200E308A01AF200E308A01AF2001
:102550000E308A01AF200E308A01AF200E308A0182
:10256000AF2000308A01AF2000308A01AF20FE305A
:102570008A01AF2068308A01AF2003308A01AF2082
:1025800003308A01AF2001308A01AF2001308A0177
:10259000AF2000308A01AF2000308A01AF20003028
:1025A0008A01AF2000308A01AF20FE308A01AF20BF
:1025B00070308A01AF2013308A01AF2013308A01B6
:1025C000AF201B308A01AF201B308A01AF201F30A3
:1025D0008A01AF200E308A01AF2000308A01AF207F
:1025E00000308A01AF20FE308A01AF2078308A01A6
:1025F000AF201E308A01AF201E308A01AF201E306E
:102600008A01AF200E308A01AF2004308A01AF204A
:1026100000308A01AF2000308A01AF2000308A01EB
:10262000AF200130BD0011303D028A110A16031897
:10263000592B8030A1000130A3003D08103C8A01D5
:10264000442020308A01AF2000308A01AF200130C1
:102650008A01AF2002308A01AF2003308A01AF2007
:102660001430A600EE308A0120218030A100023013
:10267000A3003D08103C8A01442020308A01AF208D
:1026800004308A01AF2005308A01AF2006308A016C
:10269000AF2007308A01AF201430A600FA308A013B
:1026A000202164308A014321BD0A8A110A16031DC4
:1026B000132B0330AC00E8308A0144210330AC0016
:1026C000E8308A0144218030A10080308A016620F0
:1026D0001530A60006308A0120218030A100C030CC
:1026E0008A0166201530A60017308A0120210330A8
:1026F000AC00E8308A01442108000130C1000A30F2
:102700008A014321C10A8A110A16031D7F2B080082
:1027100041003A002000200030002E00300056001A
:102720002000200030002E0030003000410020004A
:1027300000004F003A002000200030002E00300042
:1027400056002000200030002E00300030004100F4
:10275000200000002000500049004C0020005300E1
:10276000410052004A0020004D0045004E00550037
:1027700020002000000020002D002D002D002D0045
:102780002D002D002D002D002D002D002D002D00E1
:102790002D0020002000000034002E003800200012
:1027A000560020002000000054004B0053003A0067
:1027B00020003800200053006100000034002E008B
:1027C00038002000560020002000000054004B007C
:1027D00053003A0020003600200053006100000042
:1027E00034002E0038002000560020002000000099
:1027F00054004B0053003A002000340020005300E6
:102800006100000034002E00380020005600200037
:102810002000000054004B0053003A00200032001A
:10282000200053006100000034002E00380020001A
:10283000560020002000000054004B0053003A00D6
:1028400020003100200053006100000034002E0001
:1028500038002000560020002000000054004B00EB
:1028600053003A0020003400300064006B00000088
:1028700034002E0038002000560020002000000008
:1028800054004B0053003A00200032003000640036
:102890006B00000034002E0038002000560020009D
:1028A0002000000054004B0053003A00200020009C
:1028B000350064006B00000034002E00380020005A
:1028C000560020002000000054004B0053003A0046
:1028D00020002000310064006B0000002000410057
:1028E0005900410052004C004100520020002000DD
:1028F0004D0045004E005500200020000000200043
:102900002D002D002D002D002D002D002D002D005F
:102910002D002D002D002D002D0020002000000096
:1029200041005900410052003A00200020002000E0
:1029300020002000200020002000200020000000B7
:10294000200056006F006C007400200041006400FD
:1029500069006D000000200041006B0069006D00FF
:1029600020004100640069006D00000020004D005F
:1029700061007800200056006F006C007400200099
:10298000000020004D0061007800200041006B0035
:1029900069006D002000000020004100440041005B
:1029A000500054004F005200200020004D00450010
:1029B0004E00550020002000000020002D002D00BA
:1029C0002D002D002D002D002D002D002D002D009F
:1029D0002D002D002D002000200000005000690077
:1029E0006300500053005500200076002E00330095
:1029F0003500000059006100760075007A00200063
:102A0000440069006E0063002000000041003A00AD
:102A1000200041007900610072006C0061006E00CE
:102A200061006E00200020002000200000004F0008
:102A30003A0020004F006C00630075006C006500D8
:102A40006E00200020002000200020002000000058
:02400E00321F5F
:00000001FF
