:020000040000FA
:04000000AAEF00F073
:08000800F6EF00F00E6E420E4F
:10001000056E0F0E066E83EC00F0D8B4BA90D8A42B
:10002000BA80FC0FD8A0BA92D8B0BA82400E056E42
:10003000420E066E0F0E096E0A6ABAB027D8BAB21F
:1000400025D885EC00F00504BB6E05C007F006C09E
:1000500008F000500B6E0C6E003C0C6A9AEC00F03D
:100060000A500E2E0AD0BE6E0C0EBD6E09BEBD8AA1
:1000700009BCBD889494BA841200676E0C0E666E3B
:1000800009BE668A09BC6688949EF5D700D8D890C8
:100090000932063205321200E836E836FC0B010957
:1000A000C212C009C216C050F80B0309C06E320E4E
:1000B0006FEC00F0C282C2B2FED7C4CF11F0C350C1
:1000C000106E1200086A076EFF0E0726082200D085
:1000D000D8A01200030E066EDE0E02D8F5D7066A0F
:1000E000E90F056EFC0E05E3000000000526FDE2A9
:1000F000000005260606F9E205B000D005A202D0F0
:1001000000D0000012000A6A096A100EF36E06346D
:1001100009360A360750095C08500A5805E30750AB
:10012000095E08500A5AD88005360636F32EEFD7F6
:100130000550120007500B02F3CF09F0F4CF0AF07C
:1001400008500B02F3500A2607500C02F3500A26FF
:10015000095012000001010E136E146E796A786A5C
:10016000796A786A0F0EC16E0F01386B396B3A6B82
:1001700092809282928492869298929A93809382AD
:10018000938493969398939A939C939E949094922D
:10019000949494869488948A948C949E2C6E050EE4
:1001A0002F6EC580010E086EF40E8DDF140E3A6EB0
:1001B0003AC0C8FFC56A360EC66E456A9D90F28C7D
:1001C000CD92CD989E969D86C78E9D80CD80F28ED5
:1001D000486A49804A6A2FC000F0070E086ED00EA8
:1001E000076E010E13DF0001C8EF01F00001EACF36
:1001F0004CF0E9CF4DF001C04EF012C04FF0F29E2E
:10020000000E9EB0010E126E000E9DB0010E121671
:10021000D8B428EF01F09D90180ECE26FC0ECF2208
:100220009D809E90344A352AE80E345C030E355882
:10023000D8A028EF01F0356A346A364A372A375297
:10024000D8A404D0090E366428EF01F0376A366A64
:100250009EA6BEEF01F09E96C7A830EF01F0456A5A
:10026000C7A439EF01F0C96A48C0C9FFC688A5EF25
:1002700001F04868C7A0A5EF01F0C9CF39F000EE42
:100280003BF0455039C0EBFF452A3B50016E150E3F
:10029000016250EF01F0010E146E0A0E486E456ABD
:1002A0003B50016E160E01625BEF01F0020E146E00
:1002B0000A0E486E456A3B50016E170E01626EEFE2
:1002C00001F04868142C67EF01F0150E486E020E1D
:1002D00014626DEF01F0160E486E456A3B50016ED8
:1002E000180E016277EF01F02DC048F0456A3B50CF
:1002F000016E1A0E016282EF01F0050E2F6E2FC003
:1003000048F0456A3B50016E1B0E01628DEF01F013
:10031000400E2F6E2FC048F0456A3B50016E1C0EF8
:10032000016298EF01F07F0E2F6E2FC048F0456AF2
:100330003B50016E200E0162A1EF01F030C048F089
:10034000456AC6ACA5EF01F0C69C010EC7B4000E0D
:10035000126E000EC6BC010E1216D8B4B1EF01F039
:10036000C69CC688000EC7B4010E126E000EC6BE33
:10037000010E1216D8B4BEEF01F0C69EF28E4CC02C
:10038000EAFF4DC0E9FF4EC001F04FC012F011006E
:10039000939C8A9C939E8A9E0A0E94DE939A8A9AD4
:1003A000939C8A8C939E8A8E0DEC02F0010E4B6E0C
:1003B000030E4B600AEF02F0142CE5EF01F0929867
:1003C000899894908B80E9EF01F0929889889490B5
:1003D0008B90010E61DE2D6E11C02EF0D8902E3262
:1003E0002D32D8902E322D32020E56DE306E11C0D4
:1003F00031F0D89031323032D89031323032FA0E7A
:1004000061DE82729492FA0E5DDE827294924B2AC1
:10041000D8A0CED70DEC02F0C9D72A6A296A4C0EB3
:10042000286E100E276E31EC02F02A6A360E296E05
:10043000070E286EAD0E276E31EC02F02A6A400ED0
:10044000296E280E286E100E276E31EC02F02A6AF3
:100450006F0E296ED40E286ED80E276E31EC02F086
:100460001200010E2B6E180E2B6063EF02F09398B2
:100470008A98010E2714046A036A026A016E010455
:10048000021003100410D8A448EF02F093988A8851
:10049000D8902A32293228322732030EE82EFED78E
:1004A0000000000093968A86030EE82EFED7000017
:1004B000000093968A96030EE82EFED700000000F7
:1004C0002B2AD8A0D0D7939A8A8A030EE82EFED77B
:1004D00000000000939A8A9A030EE82EFED70000CF
:0604E00000001200FFD72E
:020000040030CA
:03000100211E1CA1
:020005003F803A
:0600080003C003E0034009
:00000001FF
