:020000040000FA
:04000000AAEF00F073
:08000800F6EF00F00E6E420E4F
:10001000056E0F0E066E83EC00F0D8B4BA90D8A42B
:10002000BA80FC0FD8A0BA92D8B0BA82400E056E42
:10003000420E066E0F0E096E0A6ABAB027D8BAB21F
:1000400025D885EC00F00504BB6E05C007F006C09E
:1000500008F000500B6E0C6E003C0C6A9AEC00F03D
:100060000A500E2E0AD0BE6E0C0EBD6E09BEBD8AA1
:1000700009BCBD889494BA841200676E0C0E666E3B
:1000800009BE668A09BC6688949EF5D700D8D890C8
:100090000932063205321200E836E836FC0B010957
:1000A000C212C009C216C050F80B0309C06E320E4E
:1000B0006FEC00F0C282C2B2FED7C4CF11F0C350C1
:1000C000106E1200086A076EFF0E0726082200D085
:1000D000D8A01200030E066EDE0E02D8F5D7066A0F
:1000E000E90F056EFC0E05E3000000000526FDE2A9
:1000F000000005260606F9E205B000D005A202D0F0
:1001000000D0000012000A6A096A100EF36E06346D
:1001100009360A360750095C08500A5805E30750AB
:10012000095E08500A5AD88005360636F32EEFD7F6
:100130000550120007500B02F3CF09F0F4CF0AF07C
:1001400008500B02F3500A2607500C02F3500A26FF
:10015000095012000001010E136E146E796A786A5C
:10016000796A786A0F0EC16E0F01386B396B3A6B82
:1001700092809282928492869298929A93809382AD
:10018000938493969398939A939C939E949094922D
:10019000949494869488948A948C949E2C6E050EE4
:1001A0002F6EC580010E086EF40E8DDF140E416EA9
:1001B00041C0C8FFC56A360EC66E4C6A9D90F28C6F
:1001C000CD92CD989E969D86C78E9D80CD80F28ED5
:1001D0004F6A5080516A2FC000F0070E086ED00E93
:1001E000076E010E13DF0001DFEF01F00001EACF1F
:1001F00053F0E9CF54F001C055F012C056F0F29E12
:10020000000E9EB0010E126E000E9DB0010E121671
:10021000D8B43DEF01F09D90180ECE26FC0ECF22F3
:100220009D809E90344A352AE80E345C030E355882
:10023000D8A03DEF01F0356A346A382A807A929A64
:100240003B0E38643DEF01F0386A392A3B0E3964C1
:100250003DEF01F0396A3A2A170E3A643DEF01F09A
:100260003A6A3B2A060E3B643DEF01F03B6A3C2AAA
:10027000340E3C623DEF01F03C6A9EA6D5EF01F0E2
:100280009E96C7A845EF01F04C6AC7A44EEF01F057
:10029000C96A4FC0C9FFC688BCEF01F04F68C7A04C
:1002A000BCEF01F0C9CF40F000EE42F04C5040C02E
:1002B000EBFFE0EC02F04C2A4250016E150E016299
:1002C00067EF01F0010E146E0A0E4F6E4C6A425039
:1002D000016E160E016272EF01F0020E146E0A0E2C
:1002E0004F6E4C6A4250016E170E016285EF01F0AD
:1002F0004F68142C7EEF01F0150E4F6E020E146243
:1003000084EF01F0160E4F6E4C6A4250016E180ECB
:1003100001628EEF01F02DC04FF04C6A4250016E29
:100320001A0E016299EF01F0050E2F6E2FC04FF0EB
:100330004C6A4250016E1B0E0162A4EF01F0400EA8
:100340002F6E2FC04FF04C6A4250016E1C0E01629E
:10035000AFEF01F07F0E2F6E2FC04FF04C6A42506E
:10036000016E200E0162B8EF01F030C04FF04C6A10
:10037000C6ACBCEF01F0C69C010EC7B4000E126EF5
:10038000000EC6BC010E1216D8B4C8EF01F0C69C10
:10039000C688000EC7B4010E126E000EC6BE010E56
:1003A0001216D8B4D5EF01F0C69EF28E53C0EAFF04
:1003B00054C0E9FF55C001F056C012F01100396A6F
:1003C000386A3D6A0E0E3E6E939C8A9C939E8A9E6E
:1003D0000A0E78DE939A8A9A939C8A8C939E8A8ED0
:1003E0007BEC02F03E503B5CD8A040EF02F0150ED3
:1003F0003B603CEF02F0010E146E060E395CD8A093
:1004000006EF02F0020E146E3AEF02F0100E395CA5
:10041000D8A00FEF02F0010E146E3AEF02F0150EA5
:10042000395CD8A018EF02F0020E146E3AEF02F019
:100430001F0E395CD8A021EF02F0010E146E3AEFC6
:1004400002F0240E395CD8A02AEF02F0020E146EDE
:100450003AEF02F02E0E395CD8A033EF02F0010E15
:10046000146E3AEF02F0330E395CD8A03AEF02F086
:10047000020E146E40EF02F0020E146E0C0E3B6E74
:10048000010E526E030E526078EF02F0142C4FEF03
:1004900002F09298899894908B8053EF02F0929892
:1004A000898894908B90010E4CEC00F02D6E11C059
:1004B0002EF0D8902E322D32D8902E322D32020EC0
:1004C0004CEC00F0306E11C031F0D8903132303247
:1004D000D89031323032FA0E62EC00F0827294928F
:1004E000FA0E62EC00F082729492522AD8A0CAD717
:1004F0007BEC02F077D72A6A296A4C0E286E100E20
:10050000276E9FEC02F02A6A360E296E070E286EBF
:10051000AD0E276E9FEC02F02A6A400E296E280E5F
:10052000286E100E276E9FEC02F02A6A6F0E296E5D
:10053000D40E286ED80E276E9FEC02F01200010E2A
:100540002B6E180E2B60D1EF02F093988A98010E53
:100550002714046A036A026A016E01040210031080
:100560000410D8A4B6EF02F093988A88D8902A3263
:10057000293228322732030EE82EFED70000000071
:1005800093968A86030EE82EFED70000000093960D
:100590008A96030EE82EFED7000000002B2AD8A072
:1005A000D0D7939A8A8A030EE82EFED70000000067
:1005B000939A8A9A030EE82EFED7000000001200DC
:1005C000386A396A3A6A3B6A3C6A0E0E3E6E12001D
:0205D000FFD753
:020000040030CA
:03000100211E1CA1
:020005003F803A
:0600080003C003E0034009
:00000001FF
