:020000040000FA
:04000000AAEF00F073
:08000800F6EF00F00E6E420E4F
:10001000056E0F0E066E83EC00F0D8B4BA90D8A42B
:10002000BA80FC0FD8A0BA92D8B0BA82400E056E42
:10003000420E066E0F0E096E0A6ABAB027D8BAB21F
:1000400025D885EC00F00504BB6E05C007F006C09E
:1000500008F000500B6E0C6E003C0C6A9AEC00F03D
:100060000A500E2E0AD0BE6E0C0EBD6E09BEBD8AA1
:1000700009BCBD889494BA841200676E0C0E666E3B
:1000800009BE668A09BC6688949EF5D700D8D890C8
:100090000932063205321200E836E836FC0B010957
:1000A000C212C009C216C050F80B0309C06E320E4E
:1000B0006FEC00F0C282C2B2FED7C4CF11F0C350C1
:1000C000106E1200086A076EFF0E0726082200D085
:1000D000D8A01200030E066EDE0E02D8F5D7066A0F
:1000E000E90F056EFC0E05E3000000000526FDE2A9
:1000F000000005260606F9E205B000D005A202D0F0
:1001000000D0000012000A6A096A100EF36E06346D
:1001100009360A360750095C08500A5805E30750AB
:10012000095E08500A5AD88005360636F32EEFD7F6
:100130000550120007500B02F3CF09F0F4CF0AF07C
:1001400008500B02F3500A2607500C02F3500A26FF
:10015000095012000001010E136E146E796A786A5C
:10016000796A786A0F0EC16E0F01386B396B3A6B82
:1001700092809282928492869298929A93809382AD
:10018000938493969398939A939C939E949094922D
:10019000949494869488948A948C949E2C6E050EE4
:1001A0002F6EC580010E086EF40E8DDF140E3A6EB0
:1001B0003AC0C8FFC56A360EC66E456A9D90F28C7D
:1001C000CD92CD989E969D86C78E9D80CD80F28ED5
:1001D000486A49804A6A2FC000F0070E086ED00EA8
:1001E000076E010E13DF0001CAEF01F00001EACF34
:1001F0004CF0E9CF4DF001C04EF012C04FF0F29E2E
:10020000000E9EB0010E126E000E9DB0010E121671
:10021000D8B42AEF01F09D90180ECE26FC0ECF2206
:100220009D809E90344A352AE80E345C030E355882
:10023000D8A02AEF01F0356A346A364A372A807A24
:10024000929A3752D8A404D0090E36642AEF01F0EE
:10025000376A366A9EA6C0EF01F09E96C7A832EFB5
:1002600001F0456AC7A43BEF01F0C96A48C0C9FF65
:10027000C688A7EF01F04868C7A0A7EF01F0C9CF73
:1002800039F000EE3BF0455039C0EBFF452A3B50BA
:10029000016E150E016252EF01F0010E146E0A0E8E
:1002A000486E456A3B50016E160E01625DEF01F02B
:1002B000020E146E0A0E486E456A3B50016E170E10
:1002C000016270EF01F04868142C69EF01F0150E1F
:1002D000486E020E14626FEF01F0160E486E456A0A
:1002E0003B50016E180E016279EF01F02DC048F00D
:1002F000456A3B50016E1A0E016284EF01F0050E53
:100300002F6E2FC048F0456A3B50016E1B0E0162F4
:100310008FEF01F0400E2F6E2FC048F0456A3B5022
:10032000016E1C0E01629AEF01F07F0E2F6E2FC03E
:1003300048F0456A3B50016E200E0162A3EF01F0C8
:1003400030C048F0456AC6ACA7EF01F0C69C010E6C
:10035000C7B4000E126E000EC6BC010E1216D8B441
:10036000B3EF01F0C69CC688000EC7B4010E126E32
:10037000000EC6BE010E1216D8B4C0EF01F0C69E24
:10038000F28E4CC0EAFF4DC0E9FF4EC001F04FC0F5
:1003900012F01100939C8A9C939E8A9E0A0E92DE14
:1003A000939A8A9A939C8A8C939E8A8E0FEC02F081
:1003B000010E4B6E150E4B600CEF02F0142CE7EFA4
:1003C00001F09298899894908B80EBEF01F09298CD
:1003D000898894908B90010E5FDE2D6E11C02EF0F7
:1003E000D8902E322D32D8902E322D32020E54DE7D
:1003F000306E11C031F0D89031323032D890313275
:100400003032FA0E5FDE82729492FA0E5BDE8272F6
:1004100094924B2AD8A0CED70FEC02F0C9D72A6A03
:10042000296A4C0E286E100E276E33EC02F02A6AF1
:10043000360E296E070E286EAD0E276E33EC02F0D5
:100440002A6A400E296E280E286E100E276E33EC95
:1004500002F02A6A6F0E296ED40E286ED80E276E0F
:1004600033EC02F01200010E2B6E180E2B6065EFBC
:1004700002F093988A98010E2714046A036A026AAC
:10048000016E0104021003100410D8A44AEF02F018
:1004900093988A88D8902A32293228322732030E3C
:1004A000E82EFED70000000093968A86030EE82E01
:1004B000FED70000000093968A96030EE82EFED722
:1004C000000000002B2AD8A0D0D7939A8A8A030E66
:1004D000E82EFED700000000939A8A9A030EE82EB9
:0A04E000FED7000000001200FFD755
:020000040030CA
:03000100211E1CA1
:020005003F803A
:0600080003C003E0034009
:00000001FF
