:020000040000FA
:04000000AAEF00F073
:08000800F7EF00F00E6E420E4E
:10001000056E0F0E066E83EC00F0D8B4BA90D8A42B
:10002000BA80FC0FD8A0BA92D8B0BA82400E056E42
:10003000420E066E0F0E096E0A6ABAB027D8BAB21F
:1000400025D885EC00F00504BB6E05C007F006C09E
:1000500008F000500B6E0C6E003C0C6A9AEC00F03D
:100060000A500E2E0AD0BE6E0C0EBD6E09BEBD8AA1
:1000700009BCBD889494BA841200676E0C0E666E3B
:1000800009BE668A09BC6688949EF5D700D8D890C8
:100090000932063205321200E836E836FC0B010957
:1000A000C212C009C216C050F80B0309C06E320E4E
:1000B0006FEC00F0C282C2B2FED7C4CF11F0C350C1
:1000C000106E1200086A076EFF0E0726082200D085
:1000D000D8A01200030E066EDE0E02D8F5D7066A0F
:1000E000E90F056EFC0E05E3000000000526FDE2A9
:1000F000000005260606F9E205B000D005A202D0F0
:1001000000D0000012000A6A096A100EF36E06346D
:1001100009360A360750095C08500A5805E30750AB
:10012000095E08500A5AD88005360636F32EEFD7F6
:100130000550120007500B02F3CF09F0F4CF0AF07C
:1001400008500B02F3500A2607500C02F3500A26FF
:10015000095012000001010E136E020E146E796A2E
:10016000786A796A786A0F0EC16E0F01386B396B45
:100170003A6B92809282928492869298929A93801D
:100180009382938493969398939A939C939E94903E
:100190009492949494869488948A948C949E2C6ED1
:1001A000050E2F6EC580010E086EF40E8CDF140E46
:1001B000416E41C0C8FFC56A360EC66E4C6A9D903E
:1001C000F28CCD92CD989E969D86C78E9D80CD80D7
:1001D000F28E4F6A5080516A2FC000F0070E086EF1
:1001E000D00E076E010E12DF0001DEEF01F00001FC
:1001F000EACF53F0E9CF54F001C055F012C056F0E9
:10020000F29E000E9EB0010E126E000E9DB0010E09
:100210001216D8B43CEF01F09D90180ECE26FC0EBD
:10022000CF229D809E90344A352AE80E345C030E1E
:100230003558D8A03CEF01F0356A346A382A3B0EB5
:1002400038643CEF01F0386A392A3B0E39643CEFE0
:1002500001F0396A3A2A170E3A643CEF01F03A6A23
:100260003B2A060E3B643CEF01F03B6A3C2A340E0D
:100270003C623CEF01F03C6A9EA6D4EF01F09E96F2
:10028000C7A844EF01F04C6AC7A44DEF01F0C96A5A
:100290004FC0C9FFC688BBEF01F04F68C7A0BBEFD6
:1002A00001F0C9CF40F000EE42F04C5040C0EBFFEF
:1002B000A9EC02F04C2A4250016E150E016266EF65
:1002C00001F0010E146E0A0E4F6E4C6A4250016E20
:1002D000160E016271EF01F0020E146E0A0E4F6EDF
:1002E0004C6A4250016E170E016284EF01F04F68B4
:1002F000142C7DEF01F0150E4F6E020E146283EF89
:1003000001F0160E4F6E4C6A4250016E180E0162DB
:100310008DEF01F02DC04FF04C6A4250016E1A0E65
:10032000016298EF01F0050E2F6E2FC04FF04C6A5E
:100330004250016E1B0E0162A3EF01F0400E2F6EC2
:100340002FC04FF04C6A4250016E1C0E0162AEEF9E
:1003500001F07F0E2F6E2FC04FF04C6A4250016E9D
:10036000200E0162B7EF01F030C04FF04C6AC6AC0E
:10037000BBEF01F0C69C010EC7B4000E126E000E5A
:10038000C6BC010E1216D8B4C7EF01F0C69CC688D1
:10039000000EC7B4010E126E000EC6BE010E12167C
:1003A000D8B4D4EF01F0C69EF28E53C0EAFF54C019
:1003B000E9FF55C001F056C012F01100396A386AE1
:1003C0003D6A0E0E3E6E939C8A9C939E8A9E0A0EF8
:1003D00079DE939A8A9A939C8A8C939E8A8E44ECB7
:1003E00002F03E50395CD8A00DEF02F0150E3960D6
:1003F00008EF02F01E0E386003EF02F0010E146EDB
:10040000808A06EF02F0020E146E809A0DEF02F061
:10041000020E146E809A0C0E396E010E526E030E8F
:10042000526041EF02F0142C1CEF02F09298899870
:1004300094908B8020EF02F09298898894908B9012
:10044000010E2ADE2D6E11C02EF0D8902E322D32E4
:10045000D8902E322D32020E1FDE306E11C031F0D8
:10046000D89031323032D89031323032FA0E2ADE22
:1004700082729492FA0E26DE82729492522AD8A048
:10048000CED744EC02F0ADD72A6A296A4C0E286E0A
:10049000100E276E68EC02F02A6A360E296E070EDF
:1004A000286EAD0E276E68EC02F02A6A400E296EA7
:1004B000280E286E100E276E68EC02F02A6A6F0E66
:1004C000296ED40E286ED80E276E68EC02F012004A
:1004D000010E2B6E180E2B609AEF02F093988A98FB
:1004E000010E2714046A036A026A016E01040210F5
:1004F00003100410D8A47FEF02F093988A88D89054
:100500002A32293228322732030EE82EFED7000085
:10051000000093968A86030EE82EFED700000000A6
:1005200093968A96030EE82EFED7000000002B2A31
:10053000D8A0D0D7939A8A8A030EE82EFED700005F
:100540000000939A8A9A030EE82EFED7000000005E
:100550001200386A396A3A6A3B6A3C6A020E146EC3
:080560000E0E3E6E1200FFD7E3
:020000040030CA
:03000100211E1CA1
:020005003F803A
:0600080003C003E0034009
:00000001FF
