:020000040000FA
:0400000000003228A2
:08000800D800030EDB000B130E
:100010000B1C0C286E250B100C1C1028C7240C1070
:100020000B175B0E8300D80E580E090084000008E1
:1000300008008207820730343134303435340034DC
:10004000820742344C3454345834303400348207FC
:10005000FC347C343C341C340C3404348434C434D8
:10006000E434F434831603130930850039308700F3
:1000700083160313811383160313151483120313BA
:100080008501870107309900831610309100831293
:100090000C24EE010030D600D70085145B257410C7
:1000A0000030EA005428EA0A6A08503C031C612820
:1000B000D3228312031374185E2860286C205B28F7
:1000C0005328D0194229313090000B17831603139F
:1000D0000C148312031342298B25831203134D3A08
:1000E000031D74283629A7284D3A563A031D7A284D
:1000F0003429A728563A543A031D80282229A728D4
:10010000543A503A031D86280429A728503A473A02
:10011000031D8C284229A728473A533A031D9228E9
:10012000A728A728533A433A031D9828BA28A72896
:10013000433A5A3A031D9E28CD28A7285A3A553AE1
:10014000031DA428E528A728553A08003228831261
:100150003C30EA00AC28EA0A6A08403C031CB92893
:100160006A08831603139B0083120313B725902597
:10017000AB28382983124030EA00BF28EA0A6A080F
:10018000453C031CCC286A08831603139B0083128A
:100190000313B7259025BE2838293330EA00D1282B
:1001A000EA0A6A08353C031CDE286A088316031332
:1001B0009B00831203130030A525D028831203135C
:1001C0000030D300D400D50038290A3090250D30F6
:1001D0009025831203138312031320308400003010
:1001E000E700F328E70A6708093C031C012983128A
:1001F0000313741CF9288B25831203138000840ACF
:10020000F22822240C2438290A3090250D3090251C
:100210008312031383120313203084000030E7009D
:100220001229E70A6708323C031C202983120313B2
:10023000741C18298B25831203138000840A11294A
:10024000372438294C2483120313203084000030D3
:10025000E7002B29E70A6708373C031C332900080D
:100260009025840A2A29382900243829F42338299A
:100270000A3090250D30902583120313741C3E29FB
:100280006C203E2985160030DA001A30D900F3229E
:100290000030DA001B30D900F322D3220130DA001B
:1002A0004008D900F3220230DA004108D900F322D5
:1002B0000330DA004208D900F3220430DA004008A3
:1002C000D900F3220530DA004108D900F3220630C4
:1002D000DA004208D900F3220730DA000030D900F2
:1002E000F3220830DA003230D900F3220930DA0084
:1002F0008130D900F3220A30DA000030D900F3222D
:100300000B30DA000030D900F3220C30DA0048302C
:10031000D900F3220D30DA001030D900F322113069
:10032000DA006B30D900F3221330DA000130D90043
:10033000F3221C30DA004030D900F3224230DA00D8
:100340002530D900F3220B30DA000030D900F32237
:100350000E30DA006630D900F3220030DA000130C6
:10036000D900F3220E30DA00E630D900F322D3228E
:100370000E30DA006630D900F3220030DA001F3088
:10038000D900F3220030DA001B30D900F322D32247
:100390000030DA001930D900F322D3220030DA001D
:1003A0001130D900F322D3220B30DA004308D900F0
:1003B000F3220030DA000130D900F3220B30DA00EA
:1003C0004308D900F3220030DA000130D900F322CB
:1003D0000030DA000130D900F3226F23D322472303
:1003E000D0234C247F225018FD294C241830E000E3
:1003F0008E227C30E0008E22A0246423D0180F2AA5
:10040000D322D322D322D322D3224C244723183001
:10041000E0008E22FC30E0008E22A02464234608F7
:10042000E600831203137418162A182A6C20112A66
:1004300047234508DC004B08E30007154908E500A1
:100440004808013EE400E50B232AE40B282A2B2A66
:10045000FF30E500232A07114908E5004808013E5E
:10046000E400E50B312AE40B362A392AFF30E50097
:10047000312AE30B1D2ADC0B1B2A64234708E50005
:10048000D322E50B402AE60B112A353083160313DD
:100490009B00831203135508A525343083160313DC
:1004A0009B00831203135408A525333083160313CE
:1004B0009B00831203135308A5255408D322D3228B
:1004C000D322D322D3225019E8294C2451085602B2
:1004D00003196B2AE829570852020318702AE829E1
:1004E0004723C830E0008E22C830E0008E22C8309A
:1004F000E0008E22C830E0008E2264236300DD011C
:10050000DE01DE0120305E071620DE0AE00000304A
:100510006002031D8C2A08008E22822A7418912AF8
:10052000942A64236C20472301306002031D9D2A16
:10053000D322D322D322D322CA2A01300310E00DC2
:1005400003180238DF004E08E30007154D08E500E8
:100550004C08013EE400E50BAB2AE40BB02AB32AB9
:10056000FF30E500AB2A07114D08E5004C08013EBD
:10057000E400E50BB92AE40BBE2AC12AFF3065303E
:10058000B92AE30BA52ADF0BA32AD322803060020D
:10059000031D9D2AD322D322D3220800D322D322A3
:1005A000D322D32208006430E100C530DC00D82A11
:1005B000DC0BD72ADB2ADC2AE10BD52A7A30DC00D7
:1005C0000000DC0BE02AE42A08004130DC000000D7
:1005D000DC0BE72AEB2A08002030DC000000DC0BF3
:1005E000EE2AF22A08000515051285125A1B051677
:1005F000051105150512DA1A05160511051505125E
:100600005A1A0516051105150512DA1905160511F0
:10061000051505125A190516051105150512DA18E2
:1006200005160511051505125A18051605110515AB
:10063000051205160511051585160512D91B051697
:10064000051105150512591B05160511051505128D
:10065000D91A0516051105150512591A05160511A1
:1006600005150512D9190516051105150512591993
:100670000516051105150512D918051605110515DC
:10068000051259180516051105150512003400301C
:10069000DA001B30D900F322D3220030DA001930FF
:1006A000D900F322D3220030DA001130D900F3222E
:1006B000D3220030DA000130D900F3220B30DA0007
:1006C0004308D900F32200340030DA001F30D9008B
:1006D000F3220B30DA000030D900F322003400306E
:1006E000DA001E30D900F322D3220030DA001F30A6
:1006F000D900F3220130DA004008D900F322023099
:10070000DA004108D900F3220330DA004208D900A8
:10071000F3220430DA004008D900F3220530DA0071
:100720004108D900F3220630DA004208D900F3224A
:100730000730DA000030D900F3220830DA00323016
:10074000D900F3220930DA008130D900F3220A30CF
:10075000DA000030D900F3220B30DA000030D90083
:10076000F3220C30DA004830D900F3220D30DA00E1
:100770001030D900F3221130DA006B30D900F322A7
:100780001330DA000130D900F3221C30DA00403097
:10079000D900F3224230DA002530D900F3220034A8
:1007A0000B30DA000030D900F3220E30DA00663068
:1007B000D900F3220030DA000130D900F3220E30E4
:1007C000DA00E630D900F322D3220E30DA006630A8
:1007D000D900F3220B30DA004308D900F3220034A9
:1007E000E724831203130800E70167082020FF397C
:1007F0000319FF2B902583120313E70AF52B08003A
:10080000E70167081A20FF3903190B2C9025831282
:100810000313E70A012C0800831220308400003003
:10082000EA00132CEA0A6A08373C031C212C6A08E8
:10083000831603139B0083120313B7258000840AD9
:10084000122C0800203084003C30EA00282CEA0AF0
:100850006A08453C031C362C6A08831603139B0068
:10086000831203130008A525840A272C08002030D2
:1008700084000030EA003D2CEA0A6A08323C031C7E
:100880004B2C6A08831603139B0083120313000882
:10089000A525840A3C2C0800831603131030910010
:1008A0008316031310309F008312031391309F00AF
:1008B000DD249F149F185A2C831203131E088312E1
:1008C0000313D600831603131E0883120313D700E5
:1008D0008312031390309F00831603139101831238
:1008E00003139F01831603139F0183120313080050
:1008F000003E0314031908008F24882488248824C8
:1009000088248824882488248824ED0D0311080075
:10091000ED0DEC0D031C8F2CEC0203140800EC020F
:1009200003180800EC0703100800EC01E701E715C5
:10093000ED0C0318EC07EC0CED0CE70B992C080000
:100940000130E0008E225608EC005708ED00AB3075
:1009500078246D082720E0008E225630E0008E2299
:100960006C08ED00EC010A309524AB3078246D085A
:100970002720E0008E226C08ED00EC010A3095245F
:10098000AB3078246D082720E0008E2208006E1816
:10099000CF2C6E14B8308E0017308F0008006E1CFC
:1009A000DC2C6E10D50A031DDB2CD40A031DDA2CB7
:1009B000D30A0800080008006300C730EB00E02CF1
:1009C000EB0BDF2C080090258312031308000D3079
:1009D000E3240A30E3240800EF00F0016430EF0262
:1009E000031CF42CF00AEE2C6430EF077008003C76
:1009F00003190A2D7008303EE324F0010A30EF029B
:100A0000031C042DF00AFE2C0A30EF077008303E5C
:100A1000E3241A2DF0010A30EF02031C112DF00A15
:100A20000B2D0A30EF077008003C03191A2D7008CF
:100A3000303EE3246F08303EE3240800F100FF302D
:100A4000EC2454257108EC247108633C031C2A2D06
:100A50002030E3247108093C031C302D2030E324AE
:100A60008725831203132B3A031D382DF10A522DCB
:100A70002B3A2D3A031D3E2DF103522D2D3A303ADB
:100A8000031D442DF101522D303A1B3A031D4A2D0E
:100A9000FF34522D1B3A0D3A031D512D71080800E9
:100AA000522D0D3A212D0800083090250830902550
:100AB00008309025080083120313F201F401831615
:100AC000031301178B178B151614831203130800D9
:100AD0000B120800F500F50B6B2D080083120313B1
:100AE0007410F414F301CB306A250830F600051CAD
:100AF00003100518031487306A25F30CF60B772DC5
:100B0000051C862D7308F2007414F410080083127B
:100B10000313741C892D83120313720874100800C8
:100B200083120313F3008B1303100930F600031C28
:100B300085100318851487306A25F30CF60B972D62
:100B4000851489306A258B170800831603139A00D1
:100B50008B13831603131C1555309D00AA309D007E
:100B60009C149C18B12D8B17831203130800831655
:100B700003131C14831603131A08831203130800AB
:02400E00D430AC
:0E420000A800D8000100A800D80001000000AE
:10424000420014002500FF000000030032002D0092
:104250000000A600000064000000A600640000004A
:104260000F0002004400000000000000FE00FE00FD
:104270005A005A005A005A000000000000000000D6
:0C4280003F003F003F003F003F003F00B8
:00000001FF
